:100000000A128A11EE2A00308A000408840A820744
:10001000003443344134523444342034453452346F
:1000200052344F3452342D3443344D34443430340C
:100030002034003443344134523444342034453481
:10004000523452344F3452342D3443344D344434CA
:100050003134203400344D344D3443342034493469
:100060004E3449345434493441344C3449345A348C
:10007000453444342134003443344134523444341C
:1000800020344534523452344F3452342D344334B6
:100090004D344434313436340034523445344134F0
:1000A000443449344E34473420344D344D34433491
:1000B0000034573452344934543449344E3447347C
:1000C00020344D344D3443340034573452344934A1
:1000D0005434453420344534523452344F3452343D
:1000E00000345734523449345434453420344D3478
:1000F0004F3444344534003452344534413444346C
:1001000020344534523452344F3452340034523453
:1001100045344134443420344D344F344434453430
:020120000034A9
:1005A200831203139D0108000C30831203139D0074
:1005B2000800831203138614DE2A831203138610A3
:1005C20008008316031305148130831203139F005E
:1005D2008E30831603139F000800A001A101A2011F
:1005E200A301A401A501A601A70183010A128A1190
:1005F2008D2C83160313071326309800D0308312F4
:10060200031398000A308316031399000800F000C0
:1006120070088312031393000E2B83160313141C0A
:10062200132B142B0E2B152B080001300A128A11E2
:100632008A230A128A110D30F300FB30F200F20B0A
:10064200202BF30B202B252B080083160313871076
:100652008312031392101210503083160313920068
:100662001730831203139B0012150C309D000800F3
:10067200FF308312031393003E2B83160313141CC3
:10068200432B442B3E2B452B831203131308F000FC
:100692007008A600080083160313071683120313BB
:1006A2000715871187128316031387128711071103
:1006B20022308312031394009416831603139417A3
:1006C20014178312031314120800F1008312031388
:1006D20006154230F000F00B6C2B64007108F0003C
:1006E20004300310F00CFF3E031D722B70088312BE
:1006F200031388000A128A11DA220A128A11710877
:100702008312031388000A128A11DA220A128A114A
:100712000800F1008312031306114230F000F00BBF
:10072200902B64007108F00004300310F00CFF3EBF
:10073200031D962B70088312031388000A128A1174
:10074200DA220A128A1171088312031388000A122C
:100752008A11DA220A128A110800F5000A128A1195
:1007620016230A128A11C62B750884000A128A11EE
:1007720003200A128A110A128A1166230A128A11A6
:100782000130F4007408F507C62B750884000A12BC
:100792008A1103200A128A110038031DD12BD22B91
:1007A200B52BD32B08008230F500DD30F400F40BBA
:1007B200D82BF50BD82BDD2B30300A128A118A2365
:1007C2000A128A110730F5007D30F400F40BE72B92
:1007D200F50BE72B30300A128A118A230A128A118A
:1007E2000730F5007D30F400F40BF52BF50BF52BFB
:1007F20030300A128A118A230A128A1128300A1208
:100802008A118A230A128A1128300A128A118A232B
:100812000A128A1128300A128A118A230A128A11AC
:100822000C300A128A118A230A128A110A128A11B8
:1008320016230A128A110A128A1116230A128A111F
:1008420006300A128A118A230A128A110800FA0053
:10085200FF300A128A1108230A128A117A084038D4
:100862000A128A1108230A128A117108F600720804
:10087200F7007308F8007408F90018300310F90C37
:10088200F80CF70CF60CFF3E031D3F2C76080A12FB
:100892008A1108230A128A117108F6007208F700F9
:1008A2007308F8007408F90010300310F90CF80C02
:1008B200F70CF60CFF3E031D562C76080A128A111D
:1008C20008230A128A117108F6007208F7007308E9
:1008D200F8007408F90008300310F90CF80CF70C52
:1008E200F60CFF3E031D6D2C76080A128A110823AE
:1008F2000A128A1171080A128A1108230A128A112D
:1009020075080A128A1108230A128A110A128A1118
:1009120039230A128A11080083120313071588016A
:100922008316031307128712880106118610091411
:100932000A128A11D4230A128A110A128A11E22295
:100942000A128A110A128A11FA220A128A110A1248
:100952008A114C230A128A110A128A11DA260A1201
:100962008A110A128A1126230A128A110A128A117C
:10097200D4230A128A1183120313A401A5010711B9
:100982000030A3000030A2000030A1000030A0001F
:10099200CA2C003083120313A3000030A2000030DF
:1009A200A1000030A00080300A128A118A230A12A4
:1009B2008A110A128A11D5220A128A117F300A126A
:1009C2008A11AE230A128A111A3083120313AA0063
:1009D2005E30A9008630A800A80BED2CA90BED2CE7
:1009E200AA0BED2C64000A128A112D250A128A1113
:1009F200003083120313A3000030A2000030A100D4
:100A02000030A00080300A128A118A230A128A1149
:100A12000A128A11D1220A128A1169300A128A1123
:100A2200AE230A128A111A3083120313AA005E300F
:100A3200A9008630A800A80B1C2DA90B1C2DAA0BFF
:100A42001C2D64000A128A11F2250A128A11CA2C7C
:100A5200CA2C0A128A1100280A128A11D5220A12F5
:100A62008A11831203132308F4002208F3002108D9
:100A7200F2002008F100FF30FB007B08F500123085
:100A82000A128A1128240A128A11532D0A128A1173
:100A920039230A128A1174300A128A11AE230A12F9
:100AA2008A11532D83120313A608031D592D5A2DA3
:100AB200472D5B2D45300A128A11AE230A128A1184
:100AC200692D692D0A128A1139230A128A11692D98
:100AD200831203132608FE3A031D702D712D632D18
:100AE200722DFC01FD017D08803AFF0082307F02F9
:100AF200031D7D2D00307C02031C802D812D832D52
:100B0200A62DA62D0A128A1139230A128A111B3028
:100B1200FB00FB0B8A2D8312031326089B00260978
:100B220088000130FC070318FD0A0030FD077D082C
:100B3200803AFF0082307F02031DA12D00307C022B
:100B4200031CA42DA52D832DA62DFF300A128A1178
:100B520008230A128A11FF300A128A1108230A1284
:100B62008A1183120313091CB72DB82D692D23088E
:100B7200F4002208F3002108F2002008F100FF30FF
:100B8200FB007B08F5000C300A128A1128240A1295
:100B92008A110A128A1139230A128A11D62D0A12CF
:100BA2008A1139230A128A11D62D83120313A60839
:100BB200031DDC2DDD2DD02DE52DE52D0A128A1128
:100BC20039230A128A11E52D831203132608FF3AEC
:100BD200031DEC2DED2DDF2DF12DF12D692D692D4C
:100BE20008000A128A11D1220A128A1183120313EF
:100BF2002308F4002208F3002108F2002008F10083
:100C0200FF30FB007B08F50019300A128A112824F4
:100C12000A128A11182E0A128A1139230A128A110B
:100C22005D300A128A11AE230A128A11182E83121B
:100C32000313A608031D1E2E1F2E0C2E202E51302C
:100C42000A128A11AE230A128A11272EFF300A12C3
:100C52008A1108230A128A11FF300A128A11082304
:100C62000A128A11FC300A128A1108230A128A1106
:100C7200FC01FD017D08803AFF0082307F02031DE6
:100C8200442E00307C02031C472E482E4A2E752E1D
:100C9200752E831203131F154E2E1F19512E522E1D
:100CA2004E2E532E831603131E080A128A1108238E
:100CB2000A128A11831603131E0983120313880072
:100CC2000130FC070318FD0A0030FD077D08803A59
:100CD200FF0082307F02031D702E00307C02031C55
:100CE200732E742E4A2E752EFF300A128A11082393
:100CF2000A128A11FF300A128A1108230A128A1173
:100D02000A128A1139230A128A118D2E0A128A11A5
:100D120039230A128A118D2E8312031326081F39D2
:100D2200053A031D952E962E872E9E2E9E2E0A1272
:100D32008A1139230A128A119E2E8312031326085E
:100D4200FF3A031DA52EA62E982E091CA92EAA2E07
:100D5200272EFF300A128A1108230A128A11FF3045
:100D62000A128A1108230A128A11FD300A128A1104
:100D720008230A128A110A128A1139230A128A11C5
:100D82000A128A1139230A128A11CD2E0A128A11E5
:100D920039230A128A11CD2E831203132608FF3A31
:100DA200031DD42ED52EC72ED92ED92E272E272E6F
:100DB2000800831203130715A70132302702031C10
:100DC200E32EE42EE62EF82EF82EFF300A128A11B8
:100DD20008230A128A110130FB007B0883120313D5
:100DE200A70732302702031CF72EF82EE62E071132
:100DF2000730FC007D30FB00FB0BFD2EFC0BFD2EB3
:100E02000030F4000030F3000030F2000030F10056
:100E12009530FB007B08F50000300A128A11282465
:100E22000A128A1183120313A401A501262F0A12A2
:100E32008A1139230A128A11013083120313A4077B
:100E42000318A50A0030A507262F2608013A031920
:100E52002B2F2C2F372F03302502E83003192402C1
:100E6200031C342F352F182F372F372F033025022D
:100E7200E83003192402031C3F2F402F492F013071
:100E82000A128A11AE230A128A11472F472F492FBD
:100E92000030F4000030F3000030F2000030F100C6
:100EA200FF30FB007B08F50001300A128A1128246A
:100EB2000A128A1183120313A401A501802F0030A4
:100EC200F4000030F3000030F2000030F100FF3097
:100ED200FB007B08F50001300A128A1128240A124D
:100EE2008A110A128A1139230A128A1101308312D5
:100EF2000313A4070318A50A0030A507802F2608AC
:100F0200031D842F8F2F03302502E830031924029A
:100F1200031C8C2F8D2F602F8F2F8F2F03302502D4
:100F2200E83003192402031C972F982FA12F1230A7
:100F32000A128A11AE230A128A119F2F9F2FA12F04
:100F42000030F4000030F3000230F2000030F10013
:100F5200FF30FB007B08F50010300A128A112824AA
:100F62000A128A1183120313A401A501C62F0A12C1
:100F72008A1139230A128A11013083120313A4073A
:100F82000318A50A0030A507C62F2608031DCA2F7D
:100F9200D52F03302502E83003192402031CD22F77
:100FA200D32FB82FD52FD52F03302502E8300319C0
:100FB2002402031CDD2FDE2FE72F34300A128A11A0
:100FC200AE230A128A11E52FE52FE72F23300A12EA
:100FD2008A11AE230A128A111A30FD005E30FC001B
:100FE2008630FB00FB0BF32FFC0BF32FFD0BF32FD3
:0E0FF2006400831203131408FD3994000800F4
:02400E003A3F37
:00000001FF
